{
  "_format": "hh-sol-artifact-1",
  "contractName": "Domains",
  "sourceName": "contracts/Domains.sol",
  "abi": [
    {
      "inputs": [
        {
          "internalType": "string",
          "name": "_tld",
          "type": "string"
        }
      ],
      "stateMutability": "payable",
      "type": "constructor"
    },
    {
      "anonymous": false,
      "inputs": [
        {
          "indexed": true,
          "internalType": "address",
          "name": "owner",
          "type": "address"
        },
        {
          "indexed": true,
          "internalType": "address",
          "name": "approved",
          "type": "address"
        },
        {
          "indexed": true,
          "internalType": "uint256",
          "name": "tokenId",
          "type": "uint256"
        }
      ],
      "name": "Approval",
      "type": "event"
    },
    {
      "anonymous": false,
      "inputs": [
        {
          "indexed": true,
          "internalType": "address",
          "name": "owner",
          "type": "address"
        },
        {
          "indexed": true,
          "internalType": "address",
          "name": "operator",
          "type": "address"
        },
        {
          "indexed": false,
          "internalType": "bool",
          "name": "approved",
          "type": "bool"
        }
      ],
      "name": "ApprovalForAll",
      "type": "event"
    },
    {
      "anonymous": false,
      "inputs": [
        {
          "indexed": true,
          "internalType": "address",
          "name": "from",
          "type": "address"
        },
        {
          "indexed": true,
          "internalType": "address",
          "name": "to",
          "type": "address"
        },
        {
          "indexed": true,
          "internalType": "uint256",
          "name": "tokenId",
          "type": "uint256"
        }
      ],
      "name": "Transfer",
      "type": "event"
    },
    {
      "inputs": [
        {
          "internalType": "address",
          "name": "to",
          "type": "address"
        },
        {
          "internalType": "uint256",
          "name": "tokenId",
          "type": "uint256"
        }
      ],
      "name": "approve",
      "outputs": [],
      "stateMutability": "nonpayable",
      "type": "function"
    },
    {
      "inputs": [
        {
          "internalType": "address",
          "name": "owner",
          "type": "address"
        }
      ],
      "name": "balanceOf",
      "outputs": [
        {
          "internalType": "uint256",
          "name": "",
          "type": "uint256"
        }
      ],
      "stateMutability": "view",
      "type": "function"
    },
    {
      "inputs": [
        {
          "internalType": "string",
          "name": "",
          "type": "string"
        }
      ],
      "name": "domains",
      "outputs": [
        {
          "internalType": "address",
          "name": "",
          "type": "address"
        }
      ],
      "stateMutability": "view",
      "type": "function"
    },
    {
      "inputs": [
        {
          "internalType": "string",
          "name": "name",
          "type": "string"
        }
      ],
      "name": "getAddress",
      "outputs": [
        {
          "internalType": "address",
          "name": "",
          "type": "address"
        }
      ],
      "stateMutability": "view",
      "type": "function"
    },
    {
      "inputs": [],
      "name": "getAllNames",
      "outputs": [
        {
          "internalType": "string[]",
          "name": "",
          "type": "string[]"
        }
      ],
      "stateMutability": "view",
      "type": "function"
    },
    {
      "inputs": [
        {
          "internalType": "uint256",
          "name": "tokenId",
          "type": "uint256"
        }
      ],
      "name": "getApproved",
      "outputs": [
        {
          "internalType": "address",
          "name": "",
          "type": "address"
        }
      ],
      "stateMutability": "view",
      "type": "function"
    },
    {
      "inputs": [
        {
          "internalType": "string",
          "name": "name",
          "type": "string"
        }
      ],
      "name": "getRecord",
      "outputs": [
        {
          "internalType": "string",
          "name": "",
          "type": "string"
        }
      ],
      "stateMutability": "view",
      "type": "function"
    },
    {
      "inputs": [
        {
          "internalType": "address",
          "name": "owner",
          "type": "address"
        },
        {
          "internalType": "address",
          "name": "operator",
          "type": "address"
        }
      ],
      "name": "isApprovedForAll",
      "outputs": [
        {
          "internalType": "bool",
          "name": "",
          "type": "bool"
        }
      ],
      "stateMutability": "view",
      "type": "function"
    },
    {
      "inputs": [],
      "name": "isOwner",
      "outputs": [
        {
          "internalType": "bool",
          "name": "",
          "type": "bool"
        }
      ],
      "stateMutability": "view",
      "type": "function"
    },
    {
      "inputs": [],
      "name": "name",
      "outputs": [
        {
          "internalType": "string",
          "name": "",
          "type": "string"
        }
      ],
      "stateMutability": "view",
      "type": "function"
    },
    {
      "inputs": [
        {
          "internalType": "uint256",
          "name": "",
          "type": "uint256"
        }
      ],
      "name": "names",
      "outputs": [
        {
          "internalType": "string",
          "name": "",
          "type": "string"
        }
      ],
      "stateMutability": "view",
      "type": "function"
    },
    {
      "inputs": [],
      "name": "owner",
      "outputs": [
        {
          "internalType": "address payable",
          "name": "",
          "type": "address"
        }
      ],
      "stateMutability": "view",
      "type": "function"
    },
    {
      "inputs": [
        {
          "internalType": "uint256",
          "name": "tokenId",
          "type": "uint256"
        }
      ],
      "name": "ownerOf",
      "outputs": [
        {
          "internalType": "address",
          "name": "",
          "type": "address"
        }
      ],
      "stateMutability": "view",
      "type": "function"
    },
    {
      "inputs": [
        {
          "internalType": "string",
          "name": "name",
          "type": "string"
        }
      ],
      "name": "price",
      "outputs": [
        {
          "internalType": "uint256",
          "name": "",
          "type": "uint256"
        }
      ],
      "stateMutability": "pure",
      "type": "function"
    },
    {
      "inputs": [
        {
          "internalType": "string",
          "name": "",
          "type": "string"
        }
      ],
      "name": "records",
      "outputs": [
        {
          "internalType": "string",
          "name": "",
          "type": "string"
        }
      ],
      "stateMutability": "view",
      "type": "function"
    },
    {
      "inputs": [
        {
          "internalType": "string",
          "name": "name",
          "type": "string"
        }
      ],
      "name": "register",
      "outputs": [],
      "stateMutability": "payable",
      "type": "function"
    },
    {
      "inputs": [
        {
          "internalType": "address",
          "name": "from",
          "type": "address"
        },
        {
          "internalType": "address",
          "name": "to",
          "type": "address"
        },
        {
          "internalType": "uint256",
          "name": "tokenId",
          "type": "uint256"
        }
      ],
      "name": "safeTransferFrom",
      "outputs": [],
      "stateMutability": "nonpayable",
      "type": "function"
    },
    {
      "inputs": [
        {
          "internalType": "address",
          "name": "from",
          "type": "address"
        },
        {
          "internalType": "address",
          "name": "to",
          "type": "address"
        },
        {
          "internalType": "uint256",
          "name": "tokenId",
          "type": "uint256"
        },
        {
          "internalType": "bytes",
          "name": "data",
          "type": "bytes"
        }
      ],
      "name": "safeTransferFrom",
      "outputs": [],
      "stateMutability": "nonpayable",
      "type": "function"
    },
    {
      "inputs": [
        {
          "internalType": "address",
          "name": "operator",
          "type": "address"
        },
        {
          "internalType": "bool",
          "name": "approved",
          "type": "bool"
        }
      ],
      "name": "setApprovalForAll",
      "outputs": [],
      "stateMutability": "nonpayable",
      "type": "function"
    },
    {
      "inputs": [
        {
          "internalType": "string",
          "name": "name",
          "type": "string"
        },
        {
          "internalType": "string",
          "name": "record",
          "type": "string"
        }
      ],
      "name": "setRecord",
      "outputs": [],
      "stateMutability": "nonpayable",
      "type": "function"
    },
    {
      "inputs": [
        {
          "internalType": "bytes4",
          "name": "interfaceId",
          "type": "bytes4"
        }
      ],
      "name": "supportsInterface",
      "outputs": [
        {
          "internalType": "bool",
          "name": "",
          "type": "bool"
        }
      ],
      "stateMutability": "view",
      "type": "function"
    },
    {
      "inputs": [],
      "name": "symbol",
      "outputs": [
        {
          "internalType": "string",
          "name": "",
          "type": "string"
        }
      ],
      "stateMutability": "view",
      "type": "function"
    },
    {
      "inputs": [],
      "name": "tld",
      "outputs": [
        {
          "internalType": "string",
          "name": "",
          "type": "string"
        }
      ],
      "stateMutability": "view",
      "type": "function"
    },
    {
      "inputs": [
        {
          "internalType": "uint256",
          "name": "tokenId",
          "type": "uint256"
        }
      ],
      "name": "tokenURI",
      "outputs": [
        {
          "internalType": "string",
          "name": "",
          "type": "string"
        }
      ],
      "stateMutability": "view",
      "type": "function"
    },
    {
      "inputs": [
        {
          "internalType": "address",
          "name": "from",
          "type": "address"
        },
        {
          "internalType": "address",
          "name": "to",
          "type": "address"
        },
        {
          "internalType": "uint256",
          "name": "tokenId",
          "type": "uint256"
        }
      ],
      "name": "transferFrom",
      "outputs": [],
      "stateMutability": "nonpayable",
      "type": "function"
    },
    {
      "inputs": [],
      "name": "withdraw",
      "outputs": [],
      "stateMutability": "nonpayable",
      "type": "function"
    }
  ],
  "bytecode": "0x6080604052604051806108a0016040528061086b81526020016200546e61086b9139600a9081620000319190620004ff565b506040518060400160405280600d81526020017f3c2f746578743e3c2f7376673e00000000000000000000000000000000000000815250600b9081620000789190620004ff565b5060405162005cd938038062005cd983398181016040528101906200009e91906200074a565b6040518060400160405280601381526020017f4f6a6973616e204e616d652053657276696365000000000000000000000000008152506040518060400160405280600381526020017f4f4e53000000000000000000000000000000000000000000000000000000000081525081600090816200011b9190620004ff565b5080600190816200012d9190620004ff565b50505033600760006101000a81548173ffffffffffffffffffffffffffffffffffffffff021916908373ffffffffffffffffffffffffffffffffffffffff1602179055508060099081620001829190620004ff565b50620001b26040518060600160405280602581526020016200544960259139620001b960201b6200196b1760201c565b5062000811565b6200025981604051602401620001d09190620007ed565b6040516020818303038152906040527f41304fac000000000000000000000000000000000000000000000000000000007bffffffffffffffffffffffffffffffffffffffffffffffffffffffff19166020820180517bffffffffffffffffffffffffffffffffffffffffffffffffffffffff83818316178352505050506200025c60201b60201c565b50565b60008151905060006a636f6e736f6c652e6c6f679050602083016000808483855afa5050505050565b600081519050919050565b7f4e487b7100000000000000000000000000000000000000000000000000000000600052604160045260246000fd5b7f4e487b7100000000000000000000000000000000000000000000000000000000600052602260045260246000fd5b600060028204905060018216806200030757607f821691505b6020821081036200031d576200031c620002bf565b5b50919050565b60008190508160005260206000209050919050565b60006020601f8301049050919050565b600082821b905092915050565b600060088302620003877fffffffffffffffffffffffffffffffffffffffffffffffffffffffffffffffff8262000348565b62000393868362000348565b95508019841693508086168417925050509392505050565b6000819050919050565b6000819050919050565b6000620003e0620003da620003d484620003ab565b620003b5565b620003ab565b9050919050565b6000819050919050565b620003fc83620003bf565b620004146200040b82620003e7565b84845462000355565b825550505050565b600090565b6200042b6200041c565b62000438818484620003f1565b505050565b5b8181101562000460576200045460008262000421565b6001810190506200043e565b5050565b601f821115620004af57620004798162000323565b620004848462000338565b8101602085101562000494578190505b620004ac620004a38562000338565b8301826200043d565b50505b505050565b600082821c905092915050565b6000620004d460001984600802620004b4565b1980831691505092915050565b6000620004ef8383620004c1565b9150826002028217905092915050565b6200050a8262000285565b67ffffffffffffffff81111562000526576200052562000290565b5b620005328254620002ee565b6200053f82828562000464565b600060209050601f83116001811462000577576000841562000562578287015190505b6200056e8582620004e1565b865550620005de565b601f198416620005878662000323565b60005b82811015620005b1578489015182556001820191506020850194506020810190506200058a565b86831015620005d15784890151620005cd601f891682620004c1565b8355505b6001600288020188555050505b505050505050565b6000604051905090565b600080fd5b600080fd5b600080fd5b600080fd5b6000601f19601f8301169050919050565b620006208262000604565b810181811067ffffffffffffffff8211171562000642576200064162000290565b5b80604052505050565b600062000657620005e6565b905062000665828262000615565b919050565b600067ffffffffffffffff82111562000688576200068762000290565b5b620006938262000604565b9050602081019050919050565b60005b83811015620006c0578082015181840152602081019050620006a3565b60008484015250505050565b6000620006e3620006dd846200066a565b6200064b565b905082815260208101848484011115620007025762000701620005ff565b5b6200070f848285620006a0565b509392505050565b600082601f8301126200072f576200072e620005fa565b5b815162000741848260208601620006cc565b91505092915050565b600060208284031215620007635762000762620005f0565b5b600082015167ffffffffffffffff811115620007845762000783620005f5565b5b620007928482850162000717565b91505092915050565b600082825260208201905092915050565b6000620007b98262000285565b620007c581856200079b565b9350620007d7818560208601620006a0565b620007e28162000604565b840191505092915050565b60006020820190508181036000830152620008098184620007ac565b905092915050565b614c2880620008216000396000f3fe6080604052600436106101815760003560e01c806370a08231116100d1578063bf40fac11161008a578063e985e9c511610064578063e985e9c5146105cc578063f2c298be14610609578063fb825e5f14610625578063fe2c61981461065057610181565b8063bf40fac114610529578063c1880a9814610566578063c87b56dd1461058f57610181565b806370a08231146104195780638da5cb5b146104565780638f32d59b1461048157806395d89b41146104ac578063a22cb465146104d7578063b88d4fde1461050057610181565b8063264492351161013e57806342842e0e1161011857806342842e0e146103395780634622ab0314610362578063541e771d1461039f5780636352211e146103dc57610181565b806326449235146102ba5780632d551432146102f75780633ccfd60b1461032257610181565b806301ffc9a71461018657806306fdde03146101c3578063081812fc146101ee578063095ea7b31461022b57806311dd88451461025457806323b872dd14610291575b600080fd5b34801561019257600080fd5b506101ad60048036038101906101a89190612fa9565b61068d565b6040516101ba9190612ff1565b60405180910390f35b3480156101cf57600080fd5b506101d861076f565b6040516101e5919061309c565b60405180910390f35b3480156101fa57600080fd5b50610215600480360381019061021091906130f4565b610801565b6040516102229190613162565b60405180910390f35b34801561023757600080fd5b50610252600480360381019061024d91906131a9565b610847565b005b34801561026057600080fd5b5061027b6004803603810190610276919061324e565b61095e565b604051610288919061309c565b60405180910390f35b34801561029d57600080fd5b506102b860048036038101906102b3919061329b565b610a11565b005b3480156102c657600080fd5b506102e160048036038101906102dc919061341e565b610a71565b6040516102ee9190613162565b60405180910390f35b34801561030357600080fd5b5061030c610aba565b604051610319919061309c565b60405180910390f35b34801561032e57600080fd5b50610337610b48565b005b34801561034557600080fd5b50610360600480360381019061035b919061329b565b610c0e565b005b34801561036e57600080fd5b50610389600480360381019061038491906130f4565b610c2e565b604051610396919061309c565b60405180910390f35b3480156103ab57600080fd5b506103c660048036038101906103c1919061341e565b610cce565b6040516103d3919061309c565b60405180910390f35b3480156103e857600080fd5b5061040360048036038101906103fe91906130f4565b610d84565b6040516104109190613162565b60405180910390f35b34801561042557600080fd5b50610440600480360381019061043b9190613467565b610e0a565b60405161044d91906134a3565b60405180910390f35b34801561046257600080fd5b5061046b610ec1565b60405161047891906134df565b60405180910390f35b34801561048d57600080fd5b50610496610ee7565b6040516104a39190612ff1565b60405180910390f35b3480156104b857600080fd5b506104c1610f3f565b6040516104ce919061309c565b60405180910390f35b3480156104e357600080fd5b506104fe60048036038101906104f99190613526565b610fd1565b005b34801561050c57600080fd5b5061052760048036038101906105229190613607565b610fe7565b005b34801561053557600080fd5b50610550600480360381019061054b919061324e565b611049565b60405161055d9190613162565b60405180910390f35b34801561057257600080fd5b5061058d6004803603810190610588919061368a565b611094565b005b34801561059b57600080fd5b506105b660048036038101906105b191906130f4565b611142565b6040516105c3919061309c565b60405180910390f35b3480156105d857600080fd5b506105f360048036038101906105ee919061370b565b611254565b6040516106009190612ff1565b60405180910390f35b610623600480360381019061061e919061324e565b6112e8565b005b34801561063157600080fd5b5061063a6116ec565b6040516106479190613857565b60405180910390f35b34801561065c57600080fd5b506106776004803603810190610672919061324e565b6118ca565b60405161068491906134a3565b60405180910390f35b60007f80ac58cd000000000000000000000000000000000000000000000000000000007bffffffffffffffffffffffffffffffffffffffffffffffffffffffff1916827bffffffffffffffffffffffffffffffffffffffffffffffffffffffff1916148061075857507f5b5e139f000000000000000000000000000000000000000000000000000000007bffffffffffffffffffffffffffffffffffffffffffffffffffffffff1916827bffffffffffffffffffffffffffffffffffffffffffffffffffffffff1916145b80610768575061076782611a04565b5b9050919050565b60606000805461077e906138a8565b80601f01602080910402602001604051908101604052809291908181526020018280546107aa906138a8565b80156107f75780601f106107cc576101008083540402835291602001916107f7565b820191906000526020600020905b8154815290600101906020018083116107da57829003601f168201915b5050505050905090565b600061080c82611a6e565b6004600083815260200190815260200160002060009054906101000a900473ffffffffffffffffffffffffffffffffffffffff169050919050565b600061085282610d84565b90508073ffffffffffffffffffffffffffffffffffffffff168373ffffffffffffffffffffffffffffffffffffffff16036108c2576040517f08c379a00000000000000000000000000000000000000000000000000000000081526004016108b99061394b565b60405180910390fd5b8073ffffffffffffffffffffffffffffffffffffffff166108e1611ab9565b73ffffffffffffffffffffffffffffffffffffffff161480610910575061090f8161090a611ab9565b611254565b5b61094f576040517f08c379a0000000000000000000000000000000000000000000000000000000008152600401610946906139dd565b60405180910390fd5b6109598383611ac1565b505050565b6060600d8383604051610972929190613a2d565b9081526020016040518091039020805461098b906138a8565b80601f01602080910402602001604051908101604052809291908181526020018280546109b7906138a8565b8015610a045780601f106109d957610100808354040283529160200191610a04565b820191906000526020600020905b8154815290600101906020018083116109e757829003601f168201915b5050505050905092915050565b610a22610a1c611ab9565b82611b7a565b610a61576040517f08c379a0000000000000000000000000000000000000000000000000000000008152600401610a5890613ab8565b60405180910390fd5b610a6c838383611c0f565b505050565b600c818051602081018201805184825260208301602085012081835280955050505050506000915054906101000a900473ffffffffffffffffffffffffffffffffffffffff1681565b60098054610ac7906138a8565b80601f0160208091040260200160405190810160405280929190818152602001828054610af3906138a8565b8015610b405780601f10610b1557610100808354040283529160200191610b40565b820191906000526020600020905b815481529060010190602001808311610b2357829003601f168201915b505050505081565b610b50610ee7565b610b5957600080fd5b600047905060003373ffffffffffffffffffffffffffffffffffffffff1682604051610b8490613b09565b60006040518083038185875af1925050503d8060008114610bc1576040519150601f19603f3d011682016040523d82523d6000602084013e610bc6565b606091505b5050905080610c0a576040517f08c379a0000000000000000000000000000000000000000000000000000000008152600401610c0190613b6a565b60405180910390fd5b5050565b610c2983838360405180602001604052806000815250610fe7565b505050565b600e6020528060005260406000206000915090508054610c4d906138a8565b80601f0160208091040260200160405190810160405280929190818152602001828054610c79906138a8565b8015610cc65780601f10610c9b57610100808354040283529160200191610cc6565b820191906000526020600020905b815481529060010190602001808311610ca957829003601f168201915b505050505081565b600d818051602081018201805184825260208301602085012081835280955050505050506000915090508054610d03906138a8565b80601f0160208091040260200160405190810160405280929190818152602001828054610d2f906138a8565b8015610d7c5780601f10610d5157610100808354040283529160200191610d7c565b820191906000526020600020905b815481529060010190602001808311610d5f57829003601f168201915b505050505081565b600080610d9083611f08565b9050600073ffffffffffffffffffffffffffffffffffffffff168173ffffffffffffffffffffffffffffffffffffffff1603610e01576040517f08c379a0000000000000000000000000000000000000000000000000000000008152600401610df890613bd6565b60405180910390fd5b80915050919050565b60008073ffffffffffffffffffffffffffffffffffffffff168273ffffffffffffffffffffffffffffffffffffffff1603610e7a576040517f08c379a0000000000000000000000000000000000000000000000000000000008152600401610e7190613c68565b60405180910390fd5b600360008373ffffffffffffffffffffffffffffffffffffffff1673ffffffffffffffffffffffffffffffffffffffff168152602001908152602001600020549050919050565b600760009054906101000a900473ffffffffffffffffffffffffffffffffffffffff1681565b6000600760009054906101000a900473ffffffffffffffffffffffffffffffffffffffff1673ffffffffffffffffffffffffffffffffffffffff163373ffffffffffffffffffffffffffffffffffffffff1614905090565b606060018054610f4e906138a8565b80601f0160208091040260200160405190810160405280929190818152602001828054610f7a906138a8565b8015610fc75780601f10610f9c57610100808354040283529160200191610fc7565b820191906000526020600020905b815481529060010190602001808311610faa57829003601f168201915b5050505050905090565b610fe3610fdc611ab9565b8383611f45565b5050565b610ff8610ff2611ab9565b83611b7a565b611037576040517f08c379a000000000000000000000000000000000000000000000000000000000815260040161102e90613ab8565b60405180910390fd5b611043848484846120b1565b50505050565b6000600c838360405161105d929190613a2d565b908152602001604051809103902060009054906101000a900473ffffffffffffffffffffffffffffffffffffffff16905092915050565b3373ffffffffffffffffffffffffffffffffffffffff16600c85856040516110bd929190613a2d565b908152602001604051809103902060009054906101000a900473ffffffffffffffffffffffffffffffffffffffff1673ffffffffffffffffffffffffffffffffffffffff161461110c57600080fd5b8181600d8686604051611120929190613a2d565b9081526020016040518091039020918261113b929190613e3f565b5050505050565b606061114d82611a6e565b600060066000848152602001908152602001600020805461116d906138a8565b80601f0160208091040260200160405190810160405280929190818152602001828054611199906138a8565b80156111e65780601f106111bb576101008083540402835291602001916111e6565b820191906000526020600020905b8154815290600101906020018083116111c957829003601f168201915b5050505050905060006111f761210d565b9050600081510361120c57819250505061124f565b600082511115611241578082604051602001611229929190613f40565b6040516020818303038152906040529250505061124f565b61124a84612124565b925050505b919050565b6000600560008473ffffffffffffffffffffffffffffffffffffffff1673ffffffffffffffffffffffffffffffffffffffff16815260200190815260200160002060008373ffffffffffffffffffffffffffffffffffffffff1673ffffffffffffffffffffffffffffffffffffffff16815260200190815260200160002060009054906101000a900460ff16905092915050565b600073ffffffffffffffffffffffffffffffffffffffff16600c8383604051611312929190613a2d565b908152602001604051809103902060009054906101000a900473ffffffffffffffffffffffffffffffffffffffff1673ffffffffffffffffffffffffffffffffffffffff161461136157600080fd5b600061136d83836118ca565b9050803410156113b2576040517f08c379a00000000000000000000000000000000000000000000000000000000081526004016113a990613fb0565b60405180910390fd5b6000838360096040516020016113ca9392919061409f565b60405160208183030381529060405290506000600a82600b6040516020016113f4939291906140d0565b60405160208183030381529060405290506000611411600861218c565b9050600061146287878080601f016020809104026020016040519081016040528093929190818152602001838380828437600081840152601f19601f8201169050808301925050505050505061219a565b9050600061146f8261234f565b9050611563604051806060016040528060318152602001614b496031913989898080601f016020809104026020016040519081016040528093929190818152602001838380828437600081840152601f19601f82011690508083019250505050505050600980546114df906138a8565b80601f016020809104026020016040519081016040528092919081815260200182805461150b906138a8565b80156115585780601f1061152d57610100808354040283529160200191611558565b820191906000526020600020905b81548152906001019060200180831161153b57829003601f168201915b50505050508661241d565b600061159986611572876124bf565b846040516020016115859392919061427d565b6040516020818303038152906040526124bf565b90506000816040516020016115ae9190614326565b60405160208183030381529060405290506115e0604051806060016040528060398152602001614b106039913961196b565b61161f6040518060400160405280600e81526020017f46696e616c20746f6b656e55524900000000000000000000000000000000000081525082612656565b611640604051806060016040528060398152602001614b7a6039913961196b565b61164a33866126f2565b6116548582612710565b33600c8b8b604051611667929190613a2d565b908152602001604051809103902060006101000a81548173ffffffffffffffffffffffffffffffffffffffff021916908373ffffffffffffffffffffffffffffffffffffffff1602179055508989600e600088815260200190815260200160002091826116d5929190613e3f565b506116e0600861277d565b50505050505050505050565b606061172c6040518060400160405280601f81526020017f47657474696e6720616c6c206e616d65732066726f6d20636f6e74726163740081525061196b565b6000611738600861218c565b67ffffffffffffffff811115611751576117506132f3565b5b60405190808252806020026020018201604052801561178457816020015b606081526020019060019003908161176f5790505b50905060005b611794600861218c565b8110156118c257600e600082815260200190815260200160002080546117b9906138a8565b80601f01602080910402602001604051908101604052809291908181526020018280546117e5906138a8565b80156118325780601f1061180757610100808354040283529160200191611832565b820191906000526020600020905b81548152906001019060200180831161181557829003601f168201915b505050505082828151811061184a57611849614348565b5b60200260200101819052506118af6040518060400160405280601781526020017f4e616d6520666f7220746f6b656e202564206973202573000000000000000000815250828484815181106118a2576118a1614348565b5b6020026020010151612793565b80806118ba906143a6565b91505061178a565b508091505090565b60008061191a84848080601f016020809104026020016040519081016040528093929190818152602001838380828437600081840152601f19601f8201169050808301925050505050505061219a565b90506000811161192957600080fd5b60038103611941576611c37937e08000915050611965565b6004810361195957660aa87bee538000915050611965565b66038d7ea4c680009150505b92915050565b611a018160405160240161197f919061309c565b6040516020818303038152906040527f41304fac000000000000000000000000000000000000000000000000000000007bffffffffffffffffffffffffffffffffffffffffffffffffffffffff19166020820180517bffffffffffffffffffffffffffffffffffffffffffffffffffffffff8381831617835250505050612832565b50565b60007f01ffc9a7000000000000000000000000000000000000000000000000000000007bffffffffffffffffffffffffffffffffffffffffffffffffffffffff1916827bffffffffffffffffffffffffffffffffffffffffffffffffffffffff1916149050919050565b611a778161285b565b611ab6576040517f08c379a0000000000000000000000000000000000000000000000000000000008152600401611aad90613bd6565b60405180910390fd5b50565b600033905090565b816004600083815260200190815260200160002060006101000a81548173ffffffffffffffffffffffffffffffffffffffff021916908373ffffffffffffffffffffffffffffffffffffffff160217905550808273ffffffffffffffffffffffffffffffffffffffff16611b3483610d84565b73ffffffffffffffffffffffffffffffffffffffff167f8c5be1e5ebec7d5bd14f71427d1e84f3dd0314c0f7b2291e5b200ac8c7c3b92560405160405180910390a45050565b600080611b8683610d84565b90508073ffffffffffffffffffffffffffffffffffffffff168473ffffffffffffffffffffffffffffffffffffffff161480611bc85750611bc78185611254565b5b80611c0657508373ffffffffffffffffffffffffffffffffffffffff16611bee84610801565b73ffffffffffffffffffffffffffffffffffffffff16145b91505092915050565b8273ffffffffffffffffffffffffffffffffffffffff16611c2f82610d84565b73ffffffffffffffffffffffffffffffffffffffff1614611c85576040517f08c379a0000000000000000000000000000000000000000000000000000000008152600401611c7c90614460565b60405180910390fd5b600073ffffffffffffffffffffffffffffffffffffffff168273ffffffffffffffffffffffffffffffffffffffff1603611cf4576040517f08c379a0000000000000000000000000000000000000000000000000000000008152600401611ceb906144f2565b60405180910390fd5b611d01838383600161289c565b8273ffffffffffffffffffffffffffffffffffffffff16611d2182610d84565b73ffffffffffffffffffffffffffffffffffffffff1614611d77576040517f08c379a0000000000000000000000000000000000000000000000000000000008152600401611d6e90614460565b60405180910390fd5b6004600082815260200190815260200160002060006101000a81549073ffffffffffffffffffffffffffffffffffffffff02191690556001600360008573ffffffffffffffffffffffffffffffffffffffff1673ffffffffffffffffffffffffffffffffffffffff168152602001908152602001600020600082825403925050819055506001600360008473ffffffffffffffffffffffffffffffffffffffff1673ffffffffffffffffffffffffffffffffffffffff16815260200190815260200160002060008282540192505081905550816002600083815260200190815260200160002060006101000a81548173ffffffffffffffffffffffffffffffffffffffff021916908373ffffffffffffffffffffffffffffffffffffffff160217905550808273ffffffffffffffffffffffffffffffffffffffff168473ffffffffffffffffffffffffffffffffffffffff167fddf252ad1be2c89b69c2b068fc378daa952ba7f163c4a11628f55a4df523b3ef60405160405180910390a4611f0383838360016129c2565b505050565b60006002600083815260200190815260200160002060009054906101000a900473ffffffffffffffffffffffffffffffffffffffff169050919050565b8173ffffffffffffffffffffffffffffffffffffffff168373ffffffffffffffffffffffffffffffffffffffff1603611fb3576040517f08c379a0000000000000000000000000000000000000000000000000000000008152600401611faa9061455e565b60405180910390fd5b80600560008573ffffffffffffffffffffffffffffffffffffffff1673ffffffffffffffffffffffffffffffffffffffff16815260200190815260200160002060008473ffffffffffffffffffffffffffffffffffffffff1673ffffffffffffffffffffffffffffffffffffffff16815260200190815260200160002060006101000a81548160ff0219169083151502179055508173ffffffffffffffffffffffffffffffffffffffff168373ffffffffffffffffffffffffffffffffffffffff167f17307eab39ab6107e8899845ad3d59bd9653f200f220920489ca2b5937696c31836040516120a49190612ff1565b60405180910390a3505050565b6120bc848484611c0f565b6120c8848484846129c8565b612107576040517f08c379a00000000000000000000000000000000000000000000000000000000081526004016120fe906145f0565b60405180910390fd5b50505050565b606060405180602001604052806000815250905090565b606061212f82611a6e565b600061213961210d565b905060008151116121595760405180602001604052806000815250612184565b806121638461234f565b604051602001612174929190613f40565b6040516020818303038152906040525b915050919050565b600081600001549050919050565b60008060008084519050600092505b808210156123445760008583815181106121c6576121c5614348565b5b602001015160f81c60f81b9050608060f81b817effffffffffffffffffffffffffffffffffffffffffffffffffffffffffffff191610156122155760018361220e9190614610565b9250612330565b60e060f81b817effffffffffffffffffffffffffffffffffffffffffffffffffffffffffffff19161015612257576002836122509190614610565b925061232f565b60f060f81b817effffffffffffffffffffffffffffffffffffffffffffffffffffffffffffff19161015612299576003836122929190614610565b925061232e565b60f8801b817effffffffffffffffffffffffffffffffffffffffffffffffffffffffffffff191610156122da576004836122d39190614610565b925061232d565b60fc60f81b817effffffffffffffffffffffffffffffffffffffffffffffffffffffffffffff1916101561231c576005836123159190614610565b925061232c565b6006836123299190614610565b92505b5b5b5b5b50828061233c906143a6565b9350506121a9565b829350505050919050565b60606000600161235e84612b4f565b01905060008167ffffffffffffffff81111561237d5761237c6132f3565b5b6040519080825280601f01601f1916602001820160405280156123af5781602001600182028036833780820191505090505b509050600082602001820190505b600115612412578080600190039150507f3031323334353637383961626364656600000000000000000000000000000000600a86061a8153600a858161240657612405614644565b5b049450600085036123bd575b819350505050919050565b6124b9848484846040516024016124379493929190614673565b6040516020818303038152906040527f8eafb02b000000000000000000000000000000000000000000000000000000007bffffffffffffffffffffffffffffffffffffffffffffffffffffffff19166020820180517bffffffffffffffffffffffffffffffffffffffffffffffffffffffff8381831617835250505050612832565b50505050565b6060600082519050600081036124e75760405180602001604052806000815250915050612651565b600060036002836124f89190614610565b61250291906146cd565b600461250e91906146fe565b9050600060208261251f9190614610565b67ffffffffffffffff811115612538576125376132f3565b5b6040519080825280601f01601f19166020018201604052801561256a5781602001600182028036833780820191505090505b5090506000604051806060016040528060408152602001614bb3604091399050600181016020830160005b8681101561260e5760038101905062ffffff818a015116603f8160121c168401518060081b905060ff603f83600c1c1686015116810190508060081b905060ff603f8360061c1686015116810190508060081b905060ff603f831686015116810190508060e01b90508084526004840193505050612595565b506003860660018114612628576002811461263857612643565b613d3d60f01b6002830352612643565b603d60f81b60018303525b508484525050819450505050505b919050565b6126ee828260405160240161266c929190614740565b6040516020818303038152906040527f4b5c4277000000000000000000000000000000000000000000000000000000007bffffffffffffffffffffffffffffffffffffffffffffffffffffffff19166020820180517bffffffffffffffffffffffffffffffffffffffffffffffffffffffff8381831617835250505050612832565b5050565b61270c828260405180602001604052806000815250612ca2565b5050565b6127198261285b565b612758576040517f08c379a000000000000000000000000000000000000000000000000000000000815260040161274f906147e9565b60405180910390fd5b806006600084815260200190815260200160002090816127789190614809565b505050565b6001816000016000828254019250508190555050565b61282d8383836040516024016127ab939291906148db565b6040516020818303038152906040527f5970e089000000000000000000000000000000000000000000000000000000007bffffffffffffffffffffffffffffffffffffffffffffffffffffffff19166020820180517bffffffffffffffffffffffffffffffffffffffffffffffffffffffff8381831617835250505050612832565b505050565b60008151905060006a636f6e736f6c652e6c6f679050602083016000808483855afa5050505050565b60008073ffffffffffffffffffffffffffffffffffffffff1661287d83611f08565b73ffffffffffffffffffffffffffffffffffffffff1614159050919050565b60018111156129bc57600073ffffffffffffffffffffffffffffffffffffffff168473ffffffffffffffffffffffffffffffffffffffff16146129305780600360008673ffffffffffffffffffffffffffffffffffffffff1673ffffffffffffffffffffffffffffffffffffffff16815260200190815260200160002060008282546129289190614920565b925050819055505b600073ffffffffffffffffffffffffffffffffffffffff168373ffffffffffffffffffffffffffffffffffffffff16146129bb5780600360008573ffffffffffffffffffffffffffffffffffffffff1673ffffffffffffffffffffffffffffffffffffffff16815260200190815260200160002060008282546129b39190614610565b925050819055505b5b50505050565b50505050565b60006129e98473ffffffffffffffffffffffffffffffffffffffff16612cfd565b15612b42578373ffffffffffffffffffffffffffffffffffffffff1663150b7a02612a12611ab9565b8786866040518563ffffffff1660e01b8152600401612a3494939291906149a9565b6020604051808303816000875af1925050508015612a7057506040513d601f19601f82011682018060405250810190612a6d9190614a0a565b60015b612af2573d8060008114612aa0576040519150601f19603f3d011682016040523d82523d6000602084013e612aa5565b606091505b506000815103612aea576040517f08c379a0000000000000000000000000000000000000000000000000000000008152600401612ae1906145f0565b60405180910390fd5b805181602001fd5b63150b7a0260e01b7bffffffffffffffffffffffffffffffffffffffffffffffffffffffff1916817bffffffffffffffffffffffffffffffffffffffffffffffffffffffff191614915050612b47565b600190505b949350505050565b600080600090507a184f03e93ff9f4daa797ed6e38ed64bf6a1f0100000000000000008310612bad577a184f03e93ff9f4daa797ed6e38ed64bf6a1f0100000000000000008381612ba357612ba2614644565b5b0492506040810190505b6d04ee2d6d415b85acef81000000008310612bea576d04ee2d6d415b85acef81000000008381612be057612bdf614644565b5b0492506020810190505b662386f26fc100008310612c1957662386f26fc100008381612c0f57612c0e614644565b5b0492506010810190505b6305f5e1008310612c42576305f5e1008381612c3857612c37614644565b5b0492506008810190505b6127108310612c67576127108381612c5d57612c5c614644565b5b0492506004810190505b60648310612c8a5760648381612c8057612c7f614644565b5b0492506002810190505b600a8310612c99576001810190505b80915050919050565b612cac8383612d20565b612cb960008484846129c8565b612cf8576040517f08c379a0000000000000000000000000000000000000000000000000000000008152600401612cef906145f0565b60405180910390fd5b505050565b6000808273ffffffffffffffffffffffffffffffffffffffff163b119050919050565b600073ffffffffffffffffffffffffffffffffffffffff168273ffffffffffffffffffffffffffffffffffffffff1603612d8f576040517f08c379a0000000000000000000000000000000000000000000000000000000008152600401612d8690614a83565b60405180910390fd5b612d988161285b565b15612dd8576040517f08c379a0000000000000000000000000000000000000000000000000000000008152600401612dcf90614aef565b60405180910390fd5b612de660008383600161289c565b612def8161285b565b15612e2f576040517f08c379a0000000000000000000000000000000000000000000000000000000008152600401612e2690614aef565b60405180910390fd5b6001600360008473ffffffffffffffffffffffffffffffffffffffff1673ffffffffffffffffffffffffffffffffffffffff16815260200190815260200160002060008282540192505081905550816002600083815260200190815260200160002060006101000a81548173ffffffffffffffffffffffffffffffffffffffff021916908373ffffffffffffffffffffffffffffffffffffffff160217905550808273ffffffffffffffffffffffffffffffffffffffff16600073ffffffffffffffffffffffffffffffffffffffff167fddf252ad1be2c89b69c2b068fc378daa952ba7f163c4a11628f55a4df523b3ef60405160405180910390a4612f396000838360016129c2565b5050565b6000604051905090565b600080fd5b600080fd5b60007fffffffff0000000000000000000000000000000000000000000000000000000082169050919050565b612f8681612f51565b8114612f9157600080fd5b50565b600081359050612fa381612f7d565b92915050565b600060208284031215612fbf57612fbe612f47565b5b6000612fcd84828501612f94565b91505092915050565b60008115159050919050565b612feb81612fd6565b82525050565b60006020820190506130066000830184612fe2565b92915050565b600081519050919050565b600082825260208201905092915050565b60005b8381101561304657808201518184015260208101905061302b565b60008484015250505050565b6000601f19601f8301169050919050565b600061306e8261300c565b6130788185613017565b9350613088818560208601613028565b61309181613052565b840191505092915050565b600060208201905081810360008301526130b68184613063565b905092915050565b6000819050919050565b6130d1816130be565b81146130dc57600080fd5b50565b6000813590506130ee816130c8565b92915050565b60006020828403121561310a57613109612f47565b5b6000613118848285016130df565b91505092915050565b600073ffffffffffffffffffffffffffffffffffffffff82169050919050565b600061314c82613121565b9050919050565b61315c81613141565b82525050565b60006020820190506131776000830184613153565b92915050565b61318681613141565b811461319157600080fd5b50565b6000813590506131a38161317d565b92915050565b600080604083850312156131c0576131bf612f47565b5b60006131ce85828601613194565b92505060206131df858286016130df565b9150509250929050565b600080fd5b600080fd5b600080fd5b60008083601f84011261320e5761320d6131e9565b5b8235905067ffffffffffffffff81111561322b5761322a6131ee565b5b602083019150836001820283011115613247576132466131f3565b5b9250929050565b6000806020838503121561326557613264612f47565b5b600083013567ffffffffffffffff81111561328357613282612f4c565b5b61328f858286016131f8565b92509250509250929050565b6000806000606084860312156132b4576132b3612f47565b5b60006132c286828701613194565b93505060206132d386828701613194565b92505060406132e4868287016130df565b9150509250925092565b600080fd5b7f4e487b7100000000000000000000000000000000000000000000000000000000600052604160045260246000fd5b61332b82613052565b810181811067ffffffffffffffff8211171561334a576133496132f3565b5b80604052505050565b600061335d612f3d565b90506133698282613322565b919050565b600067ffffffffffffffff821115613389576133886132f3565b5b61339282613052565b9050602081019050919050565b82818337600083830152505050565b60006133c16133bc8461336e565b613353565b9050828152602081018484840111156133dd576133dc6132ee565b5b6133e884828561339f565b509392505050565b600082601f830112613405576134046131e9565b5b81356134158482602086016133ae565b91505092915050565b60006020828403121561343457613433612f47565b5b600082013567ffffffffffffffff81111561345257613451612f4c565b5b61345e848285016133f0565b91505092915050565b60006020828403121561347d5761347c612f47565b5b600061348b84828501613194565b91505092915050565b61349d816130be565b82525050565b60006020820190506134b86000830184613494565b92915050565b60006134c982613121565b9050919050565b6134d9816134be565b82525050565b60006020820190506134f460008301846134d0565b92915050565b61350381612fd6565b811461350e57600080fd5b50565b600081359050613520816134fa565b92915050565b6000806040838503121561353d5761353c612f47565b5b600061354b85828601613194565b925050602061355c85828601613511565b9150509250929050565b600067ffffffffffffffff821115613581576135806132f3565b5b61358a82613052565b9050602081019050919050565b60006135aa6135a584613566565b613353565b9050828152602081018484840111156135c6576135c56132ee565b5b6135d184828561339f565b509392505050565b600082601f8301126135ee576135ed6131e9565b5b81356135fe848260208601613597565b91505092915050565b6000806000806080858703121561362157613620612f47565b5b600061362f87828801613194565b945050602061364087828801613194565b9350506040613651878288016130df565b925050606085013567ffffffffffffffff81111561367257613671612f4c565b5b61367e878288016135d9565b91505092959194509250565b600080600080604085870312156136a4576136a3612f47565b5b600085013567ffffffffffffffff8111156136c2576136c1612f4c565b5b6136ce878288016131f8565b9450945050602085013567ffffffffffffffff8111156136f1576136f0612f4c565b5b6136fd878288016131f8565b925092505092959194509250565b6000806040838503121561372257613721612f47565b5b600061373085828601613194565b925050602061374185828601613194565b9150509250929050565b600081519050919050565b600082825260208201905092915050565b6000819050602082019050919050565b600082825260208201905092915050565b60006137938261300c565b61379d8185613777565b93506137ad818560208601613028565b6137b681613052565b840191505092915050565b60006137cd8383613788565b905092915050565b6000602082019050919050565b60006137ed8261374b565b6137f78185613756565b93508360208202850161380985613767565b8060005b85811015613845578484038952815161382685826137c1565b9450613831836137d5565b925060208a0199505060018101905061380d565b50829750879550505050505092915050565b6000602082019050818103600083015261387181846137e2565b905092915050565b7f4e487b7100000000000000000000000000000000000000000000000000000000600052602260045260246000fd5b600060028204905060018216806138c057607f821691505b6020821081036138d3576138d2613879565b5b50919050565b7f4552433732313a20617070726f76616c20746f2063757272656e74206f776e6560008201527f7200000000000000000000000000000000000000000000000000000000000000602082015250565b6000613935602183613017565b9150613940826138d9565b604082019050919050565b6000602082019050818103600083015261396481613928565b9050919050565b7f4552433732313a20617070726f76652063616c6c6572206973206e6f7420746f60008201527f6b656e206f776e6572206f7220617070726f76656420666f7220616c6c000000602082015250565b60006139c7603d83613017565b91506139d28261396b565b604082019050919050565b600060208201905081810360008301526139f6816139ba565b9050919050565b600081905092915050565b6000613a1483856139fd565b9350613a2183858461339f565b82840190509392505050565b6000613a3a828486613a08565b91508190509392505050565b7f4552433732313a2063616c6c6572206973206e6f7420746f6b656e206f776e6560008201527f72206f7220617070726f76656400000000000000000000000000000000000000602082015250565b6000613aa2602d83613017565b9150613aad82613a46565b604082019050919050565b60006020820190508181036000830152613ad181613a95565b9050919050565b600081905092915050565b50565b6000613af3600083613ad8565b9150613afe82613ae3565b600082019050919050565b6000613b1482613ae6565b9150819050919050565b7f4661696c656420746f207769746864726177204d617469630000000000000000600082015250565b6000613b54601883613017565b9150613b5f82613b1e565b602082019050919050565b60006020820190508181036000830152613b8381613b47565b9050919050565b7f4552433732313a20696e76616c696420746f6b656e2049440000000000000000600082015250565b6000613bc0601883613017565b9150613bcb82613b8a565b602082019050919050565b60006020820190508181036000830152613bef81613bb3565b9050919050565b7f4552433732313a2061646472657373207a65726f206973206e6f74206120766160008201527f6c6964206f776e65720000000000000000000000000000000000000000000000602082015250565b6000613c52602983613017565b9150613c5d82613bf6565b604082019050919050565b60006020820190508181036000830152613c8181613c45565b9050919050565b600082905092915050565b60008190508160005260206000209050919050565b60006020601f8301049050919050565b600082821b905092915050565b600060088302613cf57fffffffffffffffffffffffffffffffffffffffffffffffffffffffffffffffff82613cb8565b613cff8683613cb8565b95508019841693508086168417925050509392505050565b6000819050919050565b6000613d3c613d37613d32846130be565b613d17565b6130be565b9050919050565b6000819050919050565b613d5683613d21565b613d6a613d6282613d43565b848454613cc5565b825550505050565b600090565b613d7f613d72565b613d8a818484613d4d565b505050565b5b81811015613dae57613da3600082613d77565b600181019050613d90565b5050565b601f821115613df357613dc481613c93565b613dcd84613ca8565b81016020851015613ddc578190505b613df0613de885613ca8565b830182613d8f565b50505b505050565b600082821c905092915050565b6000613e1660001984600802613df8565b1980831691505092915050565b6000613e2f8383613e05565b9150826002028217905092915050565b613e498383613c88565b67ffffffffffffffff811115613e6257613e616132f3565b5b613e6c82546138a8565b613e77828285613db2565b6000601f831160018114613ea65760008415613e94578287013590505b613e9e8582613e23565b865550613f06565b601f198416613eb486613c93565b60005b82811015613edc57848901358255600182019150602085019450602081019050613eb7565b86831015613ef95784890135613ef5601f891682613e05565b8355505b6001600288020188555050505b50505050505050565b6000613f1a8261300c565b613f2481856139fd565b9350613f34818560208601613028565b80840191505092915050565b6000613f4c8285613f0f565b9150613f588284613f0f565b91508190509392505050565b7f4e6f7420656e6f756768204d6174696320706169640000000000000000000000600082015250565b6000613f9a601583613017565b9150613fa582613f64565b602082019050919050565b60006020820190508181036000830152613fc981613f8d565b9050919050565b7f2e00000000000000000000000000000000000000000000000000000000000000600082015250565b60006140066001836139fd565b915061401182613fd0565b600182019050919050565b60008154614029816138a8565b61403381866139fd565b9450600182166000811461404e576001811461406357614096565b60ff1983168652811515820286019350614096565b61406c85613c93565b60005b8381101561408e5781548189015260018201915060208101905061406f565b838801955050505b50505092915050565b60006140ac828587613a08565b91506140b782613ff9565b91506140c3828461401c565b9150819050949350505050565b60006140dc828661401c565b91506140e88285613f0f565b91506140f4828461401c565b9150819050949350505050565b7f7b226e616d65223a202200000000000000000000000000000000000000000000600082015250565b6000614137600a836139fd565b915061414282614101565b600a82019050919050565b7f222c20226465736372697074696f6e223a20224120646f6d61696e206f6e207460008201527f6865206f6a6973616e206e616d652073657276696365222c2022696d6167652260208201527f3a2022646174613a696d6167652f7376672b786d6c3b6261736536342c000000604082015250565b60006141cf605d836139fd565b91506141da8261414d565b605d82019050919050565b7f222c226c656e677468223a220000000000000000000000000000000000000000600082015250565b600061421b600c836139fd565b9150614226826141e5565b600c82019050919050565b7f227d000000000000000000000000000000000000000000000000000000000000600082015250565b60006142676002836139fd565b915061427282614231565b600282019050919050565b60006142888261412a565b91506142948286613f0f565b915061429f826141c2565b91506142ab8285613f0f565b91506142b68261420e565b91506142c28284613f0f565b91506142cd8261425a565b9150819050949350505050565b7f646174613a6170706c69636174696f6e2f6a736f6e3b6261736536342c000000600082015250565b6000614310601d836139fd565b915061431b826142da565b601d82019050919050565b600061433182614303565b915061433d8284613f0f565b915081905092915050565b7f4e487b7100000000000000000000000000000000000000000000000000000000600052603260045260246000fd5b7f4e487b7100000000000000000000000000000000000000000000000000000000600052601160045260246000fd5b60006143b1826130be565b91507fffffffffffffffffffffffffffffffffffffffffffffffffffffffffffffffff82036143e3576143e2614377565b5b600182019050919050565b7f4552433732313a207472616e736665722066726f6d20696e636f72726563742060008201527f6f776e6572000000000000000000000000000000000000000000000000000000602082015250565b600061444a602583613017565b9150614455826143ee565b604082019050919050565b600060208201905081810360008301526144798161443d565b9050919050565b7f4552433732313a207472616e7366657220746f20746865207a65726f2061646460008201527f7265737300000000000000000000000000000000000000000000000000000000602082015250565b60006144dc602483613017565b91506144e782614480565b604082019050919050565b6000602082019050818103600083015261450b816144cf565b9050919050565b7f4552433732313a20617070726f766520746f2063616c6c657200000000000000600082015250565b6000614548601983613017565b915061455382614512565b602082019050919050565b600060208201905081810360008301526145778161453b565b9050919050565b7f4552433732313a207472616e7366657220746f206e6f6e20455243373231526560008201527f63656976657220696d706c656d656e7465720000000000000000000000000000602082015250565b60006145da603283613017565b91506145e58261457e565b604082019050919050565b60006020820190508181036000830152614609816145cd565b9050919050565b600061461b826130be565b9150614626836130be565b925082820190508082111561463e5761463d614377565b5b92915050565b7f4e487b7100000000000000000000000000000000000000000000000000000000600052601260045260246000fd5b6000608082019050818103600083015261468d8187613063565b905081810360208301526146a18186613063565b905081810360408301526146b58185613063565b90506146c46060830184613494565b95945050505050565b60006146d8826130be565b91506146e3836130be565b9250826146f3576146f2614644565b5b828204905092915050565b6000614709826130be565b9150614714836130be565b9250828202614722816130be565b9150828204841483151761473957614738614377565b5b5092915050565b6000604082019050818103600083015261475a8185613063565b9050818103602083015261476e8184613063565b90509392505050565b7f45524337323155524953746f726167653a2055524920736574206f66206e6f6e60008201527f6578697374656e7420746f6b656e000000000000000000000000000000000000602082015250565b60006147d3602e83613017565b91506147de82614777565b604082019050919050565b60006020820190508181036000830152614802816147c6565b9050919050565b6148128261300c565b67ffffffffffffffff81111561482b5761482a6132f3565b5b61483582546138a8565b614840828285613db2565b600060209050601f8311600181146148735760008415614861578287015190505b61486b8582613e23565b8655506148d3565b601f19841661488186613c93565b60005b828110156148a957848901518255600182019150602085019450602081019050614884565b868310156148c657848901516148c2601f891682613e05565b8355505b6001600288020188555050505b505050505050565b600060608201905081810360008301526148f58186613063565b90506149046020830185613494565b81810360408301526149168184613063565b9050949350505050565b600061492b826130be565b9150614936836130be565b925082820390508181111561494e5761494d614377565b5b92915050565b600081519050919050565b600082825260208201905092915050565b600061497b82614954565b614985818561495f565b9350614995818560208601613028565b61499e81613052565b840191505092915050565b60006080820190506149be6000830187613153565b6149cb6020830186613153565b6149d86040830185613494565b81810360608301526149ea8184614970565b905095945050505050565b600081519050614a0481612f7d565b92915050565b600060208284031215614a2057614a1f612f47565b5b6000614a2e848285016149f5565b91505092915050565b7f4552433732313a206d696e7420746f20746865207a65726f2061646472657373600082015250565b6000614a6d602083613017565b9150614a7882614a37565b602082019050919050565b60006020820190508181036000830152614a9c81614a60565b9050919050565b7f4552433732313a20746f6b656e20616c7265616479206d696e74656400000000600082015250565b6000614ad9601c83613017565b9150614ae482614aa3565b602082019050919050565b60006020820190508181036000830152614b0881614acc565b905091905056fe0a2d2d2d2d2d2d2d2d2d2d2d2d2d2d2d2d2d2d2d2d2d2d2d2d2d2d2d2d2d2d2d2d2d2d2d2d2d2d2d2d2d2d2d2d2d2d2d2d2d2d2d2d2d2d2d2d5265676973746572696e672025732e2573206f6e2074686520636f6e7472616374207769746820746f6b656e49442025642d2d2d2d2d2d2d2d2d2d2d2d2d2d2d2d2d2d2d2d2d2d2d2d2d2d2d2d2d2d2d2d2d2d2d2d2d2d2d2d2d2d2d2d2d2d2d2d2d2d2d2d2d2d2d2d0a4142434445464748494a4b4c4d4e4f505152535455565758595a6162636465666768696a6b6c6d6e6f707172737475767778797a303132333435363738392b2fa2646970667358221220f3f8804f55eb4c01b8c8e859d2c83772e103c861eeeefd491f5024894e4ec67964736f6c63430008110033596f20796f2c204920616d206120636f6e747261637420616e64204920616d20736d6172743c73766720786d6c6e733d22687474703a2f2f7777772e77332e6f72672f323030302f737667222077696474683d2232373022206865696768743d22323730222066696c6c3d226e6f6e65223e3c706174682066696c6c3d2275726c282342292220643d224d302030683237307632373048307a222f3e3c646566733e3c66696c7465722069643d22412220636f6c6f722d696e746572706f6c6174696f6e2d66696c746572733d2273524742222066696c746572556e6974733d227573657253706163654f6e55736522206865696768743d22323730222077696474683d22323730223e3c666544726f70536861646f772064783d2230222064793d22312220737464446576696174696f6e3d22322220666c6f6f642d6f7061636974793d222e323235222077696474683d223230302522206865696768743d2232303025222f3e3c2f66696c7465723e3c2f646566733e3c7061746820643d224d37322e3836332034322e393439632d2e3636382d2e3338372d312e3432362d2e35392d322e3139372d2e3539732d312e3532392e3230342d322e3139372e35396c2d31302e30383120362e3033322d362e383520332e3933342d31302e30383120362e303332632d2e3636382e3338372d312e3432362e35392d322e3139372e3539732d312e3532392d2e3230342d322e3139372d2e35396c2d382e3031332d342e37323161342e353220342e35322030203020312d312e3538392d312e363136632d2e3338342d2e3636352d2e3539342d312e3431382d2e3630382d322e313837762d392e3331632d2e3031332d2e3737352e3138352d312e3533382e3537322d322e32303861342e323520342e323520302030203120312e3632352d312e3539356c372e3838342d342e3539632e3636382d2e33383720312e3432362d2e353920322e3139372d2e353973312e3532392e32303420322e3139372e35396c372e38383420342e353961342e353220342e353220302030203120312e35383920312e363136632e3338342e3636352e35393420312e3431382e36303820322e31383776362e3033326c362e38352d342e303635762d362e303332632e3031332d2e3737352d2e3138352d312e3533382d2e3537322d322e32303861342e323520342e32352030203020302d312e3632352d312e3539354c34312e3435362032342e3539632d2e3636382d2e3338372d312e3432362d2e35392d322e3139372d2e3539732d312e3532392e3230342d322e3139372e35396c2d31342e38363420382e36353561342e323520342e32352030203020302d312e36323520312e353935632d2e3338372e36372d2e35383520312e3433342d2e35373220322e3230387631372e343431632d2e3031332e3737352e31383520312e3533382e35373220322e32303861342e323520342e323520302030203020312e36323520312e3539356c31342e38363420382e363535632e3636382e33383720312e3432362e353920322e3139372e353973312e3532392d2e32303420322e3139372d2e35396c31302e3038312d352e39303120362e38352d342e3036352031302e3038312d352e393031632e3636382d2e33383720312e3432362d2e353920322e3139372d2e353973312e3532392e32303420322e3139372e35396c372e38383420342e353961342e353220342e353220302030203120312e35383920312e363136632e3338342e3636352e35393420312e3431382e36303820322e31383776392e333131632e3031332e3737352d2e31383520312e3533382d2e35373220322e32303861342e323520342e32352030203020312d312e36323520312e3539356c2d372e38383420342e373231632d2e3636382e3338372d312e3432362e35392d322e3139372e3539732d312e3532392d2e3230342d322e3139372d2e35396c2d372e3838342d342e353961342e353220342e35322030203020312d312e3538392d312e363136632d2e3338352d2e3636352d2e3539342d312e3431382d2e3630382d322e313837762d362e3033326c2d362e383520342e30363576362e303332632d2e3031332e3737352e31383520312e3533382e35373220322e32303861342e323520342e323520302030203020312e36323520312e3539356c31342e38363420382e363535632e3636382e33383720312e3432362e353920322e3139372e353973312e3532392d2e32303420322e3139372d2e35396c31342e3836342d382e363535632e3635372d2e33393420312e3230342d2e393520312e3538392d312e363136732e3539342d312e3431382e3630392d322e3138375635352e353338632e3031332d2e3737352d2e3138352d312e3533382d2e3537322d322e32303861342e323520342e32352030203020302d312e3632352d312e3539356c2d31342e3939332d382e3738367a222066696c6c3d2223666666222f3e3c646566733e3c6c696e6561724772616469656e742069643d2242222078313d2230222079313d2230222078323d22323730222079323d2232373022206772616469656e74556e6974733d227573657253706163654f6e557365223e3c73746f702073746f702d636f6c6f723d2223636235656565222f3e3c73746f70206f66667365743d2231222073746f702d636f6c6f723d2223306364376534222073746f702d6f7061636974793d222e3939222f3e3c2f6c696e6561724772616469656e743e3c2f646566733e3c7465787420783d2233322e352220793d223233312220666f6e742d73697a653d223237222066696c6c3d2223666666222066696c7465723d2275726c282341292220666f6e742d66616d696c793d22506c7573204a616b617274612053616e732c44656a6156752053616e732c4e6f746f20436f6c6f7220456d6f6a692c4170706c6520436f6c6f7220456d6f6a692c73616e732d73657269662220666f6e742d7765696768743d22626f6c64223e",
  "linkReferences": {},
  "deployedLinkReferences": {}
}